{
  "address": "0x3652B9cFECbA903d5038Fe9f921EEc2D4918FD50",
  "abi": [
    {
      "inputs": [
        {
          "internalType": "address",
          "name": "vrfCoordinator",
          "type": "address"
        },
        {
          "internalType": "address",
          "name": "linkToken",
          "type": "address"
        },
        {
          "internalType": "bytes32",
          "name": "keyHash",
          "type": "bytes32"
        },
        {
          "internalType": "uint256",
          "name": "fee",
          "type": "uint256"
        }
      ],
      "stateMutability": "nonpayable",
      "type": "constructor"
    },
    {
      "anonymous": false,
      "inputs": [
        {
          "indexed": true,
          "internalType": "bytes32",
          "name": "requestId",
          "type": "bytes32"
        },
        {
          "indexed": false,
          "internalType": "uint256",
          "name": "randomness",
          "type": "uint256"
        }
      ],
      "name": "RandomnessFulfilled",
      "type": "event"
    },
    {
      "anonymous": false,
      "inputs": [
        {
          "indexed": true,
          "internalType": "bytes32",
          "name": "requestId",
          "type": "bytes32"
        },
        {
          "indexed": false,
          "internalType": "uint256",
          "name": "range",
          "type": "uint256"
        }
      ],
      "name": "RequestedRandomness",
      "type": "event"
    },
    {
      "inputs": [
        {
          "internalType": "uint256",
          "name": "range",
          "type": "uint256"
        }
      ],
      "name": "getRandomNumber",
      "outputs": [
        {
          "internalType": "bytes32",
          "name": "requestId",
          "type": "bytes32"
        }
      ],
      "stateMutability": "nonpayable",
      "type": "function"
    },
    {
      "inputs": [
        {
          "internalType": "bytes32",
          "name": "requestId",
          "type": "bytes32"
        },
        {
          "internalType": "uint256",
          "name": "randomness",
          "type": "uint256"
        }
      ],
      "name": "rawFulfillRandomness",
      "outputs": [],
      "stateMutability": "nonpayable",
      "type": "function"
    },
    {
      "inputs": [
        {
          "internalType": "bytes32",
          "name": "",
          "type": "bytes32"
        }
      ],
      "name": "s_requestIdToRNG",
      "outputs": [
        {
          "internalType": "uint256",
          "name": "",
          "type": "uint256"
        }
      ],
      "stateMutability": "view",
      "type": "function"
    },
    {
      "inputs": [
        {
          "internalType": "bytes32",
          "name": "",
          "type": "bytes32"
        }
      ],
      "name": "s_requestIdToRange",
      "outputs": [
        {
          "internalType": "uint256",
          "name": "",
          "type": "uint256"
        }
      ],
      "stateMutability": "view",
      "type": "function"
    }
  ],
  "transactionHash": "0xe1f9bfa67d8664ab491dc3dcc134765295f15275dfca8cf93ee9b2ca7f1fc27a",
  "args": [
    "0xdD3782915140c8f3b190B5D67eAc6dc5760C46E9",
    "0xa36085F69e2889c224210F603D836748e7dC0088",
    "0x6c3699283bda56ad74f6b855546325b68d482e983852a7a82979cc4807b641f4",
    "1000000000000000000"
  ],
  "solcInputHash": "f0a530074eac8d950d763ee3acafe801",
  "bytecode": "0x60c06040523480156200001157600080fd5b5060405162000de938038062000de9833981810160405281019062000037919062000106565b83838173ffffffffffffffffffffffffffffffffffffffff1660a08173ffffffffffffffffffffffffffffffffffffffff1660601b815250508073ffffffffffffffffffffffffffffffffffffffff1660808173ffffffffffffffffffffffffffffffffffffffff1660601b81525050505081600181905550806002819055505050505062000213565b600081519050620000d281620001c5565b92915050565b600081519050620000e981620001df565b92915050565b6000815190506200010081620001f9565b92915050565b60008060008060808587031215620001235762000122620001c0565b5b60006200013387828801620000c1565b94505060206200014687828801620000c1565b93505060406200015987828801620000d8565b92505060606200016c87828801620000ef565b91505092959194509250565b6000620001858262000196565b9050919050565b6000819050919050565b600073ffffffffffffffffffffffffffffffffffffffff82169050919050565b6000819050919050565b600080fd5b620001d08162000178565b8114620001dc57600080fd5b50565b620001ea816200018c565b8114620001f657600080fd5b50565b6200020481620001b6565b81146200021057600080fd5b50565b60805160601c60a05160601c610b9c6200024d6000396000818161012f01526103cf0152600081816101d001526103930152610b9c6000f3fe608060405234801561001057600080fd5b506004361061004c5760003560e01c806335a2149f146100515780634ade984f1461008157806394985ddd146100b1578063b37217a4146100cd575b600080fd5b61006b600480360381019061006691906105de565b6100fd565b60405161007891906108cd565b60405180910390f35b61009b600480360381019061009691906105de565b610115565b6040516100a891906108cd565b60405180910390f35b6100cb60048036038101906100c6919061060b565b61012d565b005b6100e760048036038101906100e2919061064b565b6101c9565b6040516100f49190610804565b60405180910390f35b60046020528060005260406000206000915090505481565b60036020528060005260406000206000915090505481565b7f000000000000000000000000000000000000000000000000000000000000000073ffffffffffffffffffffffffffffffffffffffff163373ffffffffffffffffffffffffffffffffffffffff16146101bb576040517f08c379a00000000000000000000000000000000000000000000000000000000081526004016101b2906108ad565b60405180910390fd5b6101c5828261031d565b5050565b60006002547f000000000000000000000000000000000000000000000000000000000000000073ffffffffffffffffffffffffffffffffffffffff166370a08231306040518263ffffffff1660e01b815260040161022791906107ab565b60206040518083038186803b15801561023f57600080fd5b505afa158015610253573d6000803e3d6000fd5b505050506040513d601f19601f820116820180604052508101906102779190610678565b10156102b8576040517f08c379a00000000000000000000000000000000000000000000000000000000081526004016102af9061088d565b60405180910390fd5b6102c660015460025461038f565b9050816003600083815260200190815260200160002081905550807f593e15623f532f149247fc36c3b5cc4483916d3bbdf67d5168f742ab66b5faf88360405161031091906108cd565b60405180910390a2919050565b60036000838152602001908152602001600020548161033c9190610a04565b6004600084815260200190815260200160002081905550817f9b0aa3f92f46e24caa76b000bdf0dd495b9b390c320cf6585ae10a12b7d09edb8260405161038391906108cd565b60405180910390a25050565b60007f000000000000000000000000000000000000000000000000000000000000000073ffffffffffffffffffffffffffffffffffffffff16634000aea07f00000000000000000000000000000000000000000000000000000000000000008486600060405160200161040392919061081f565b6040516020818303038152906040526040518463ffffffff1660e01b8152600401610430939291906107c6565b602060405180830381600087803b15801561044a57600080fd5b505af115801561045e573d6000803e3d6000fd5b505050506040513d601f19601f8201168201806040525081019061048291906105b1565b5060006104a484600030600080898152602001908152602001600020546104ee565b90506001600080868152602001908152602001600020546104c59190610915565b600080868152602001908152602001600020819055506104e5848261052a565b91505092915050565b6000848484846040516020016105079493929190610848565b6040516020818303038152906040528051906020012060001c9050949350505050565b6000828260405160200161053f92919061077f565b60405160208183030381529060405280519060200120905092915050565b60008151905061056c81610b21565b92915050565b60008135905061058181610b38565b92915050565b60008135905061059681610b4f565b92915050565b6000815190506105ab81610b4f565b92915050565b6000602082840312156105c7576105c6610a93565b5b60006105d58482850161055d565b91505092915050565b6000602082840312156105f4576105f3610a93565b5b600061060284828501610572565b91505092915050565b6000806040838503121561062257610621610a93565b5b600061063085828601610572565b925050602061064185828601610587565b9150509250929050565b60006020828403121561066157610660610a93565b5b600061066f84828501610587565b91505092915050565b60006020828403121561068e5761068d610a93565b5b600061069c8482850161059c565b91505092915050565b6106ae8161096b565b82525050565b6106bd81610989565b82525050565b6106d46106cf82610989565b6109f0565b82525050565b60006106e5826108e8565b6106ef81856108f3565b93506106ff8185602086016109bd565b61070881610a98565b840191505092915050565b6000610720602b83610904565b915061072b82610aa9565b604082019050919050565b6000610743601f83610904565b915061074e82610af8565b602082019050919050565b610762816109b3565b82525050565b610779610774826109b3565b6109fa565b82525050565b600061078b82856106c3565b60208201915061079b8284610768565b6020820191508190509392505050565b60006020820190506107c060008301846106a5565b92915050565b60006060820190506107db60008301866106a5565b6107e86020830185610759565b81810360408301526107fa81846106da565b9050949350505050565b600060208201905061081960008301846106b4565b92915050565b600060408201905061083460008301856106b4565b6108416020830184610759565b9392505050565b600060808201905061085d60008301876106b4565b61086a6020830186610759565b61087760408301856106a5565b6108846060830184610759565b95945050505050565b600060208201905081810360008301526108a681610713565b9050919050565b600060208201905081810360008301526108c681610736565b9050919050565b60006020820190506108e26000830184610759565b92915050565b600081519050919050565b600082825260208201905092915050565b600082825260208201905092915050565b6000610920826109b3565b915061092b836109b3565b9250827fffffffffffffffffffffffffffffffffffffffffffffffffffffffffffffffff038211156109605761095f610a35565b5b828201905092915050565b600061097682610993565b9050919050565b60008115159050919050565b6000819050919050565b600073ffffffffffffffffffffffffffffffffffffffff82169050919050565b6000819050919050565b60005b838110156109db5780820151818401526020810190506109c0565b838111156109ea576000848401525b50505050565b6000819050919050565b6000819050919050565b6000610a0f826109b3565b9150610a1a836109b3565b925082610a2a57610a29610a64565b5b828206905092915050565b7f4e487b7100000000000000000000000000000000000000000000000000000000600052601160045260246000fd5b7f4e487b7100000000000000000000000000000000000000000000000000000000600052601260045260246000fd5b600080fd5b6000601f19601f8301169050919050565b7f4e6f7420656e6f756768204c494e4b202d2066696c6c20636f6e74726163742060008201527f7769746820666175636574000000000000000000000000000000000000000000602082015250565b7f4f6e6c7920565246436f6f7264696e61746f722063616e2066756c66696c6c00600082015250565b610b2a8161097d565b8114610b3557600080fd5b50565b610b4181610989565b8114610b4c57600080fd5b50565b610b58816109b3565b8114610b6357600080fd5b5056fea2646970667358221220685034191f5e452d1c9ca2040fa4be9dcb2e428ab3d7168b495908572072764864736f6c63430008070033",
  "devdoc": {
    "kind": "dev",
    "methods": {},
    "version": 1
  },
  "userdoc": {
    "kind": "user",
    "methods": {
      "getRandomNumber(uint256)": {
        "notice": "Requests randomness"
      }
    },
    "notice": "Request testnet LINK and ETH here: https://faucets.chain.link/ Find information on LINK Token Contracts and get the latest ETH and LINK faucets here: https://docs.chain.link/docs/link-token-contracts/",
    "version": 1
  },
  "storageLayout": {
    "storage": [
      {
        "astId": 79,
        "contract": "contracts/VerifiableRandomnessOrg.sol:VerifiableRandomnessOrg",
        "label": "nonces",
        "offset": 0,
        "slot": "0",
        "type": "t_mapping(t_bytes32,t_uint256)"
      },
      {
        "astId": 273,
        "contract": "contracts/VerifiableRandomnessOrg.sol:VerifiableRandomnessOrg",
        "label": "s_keyHash",
        "offset": 0,
        "slot": "1",
        "type": "t_bytes32"
      },
      {
        "astId": 275,
        "contract": "contracts/VerifiableRandomnessOrg.sol:VerifiableRandomnessOrg",
        "label": "s_fee",
        "offset": 0,
        "slot": "2",
        "type": "t_uint256"
      },
      {
        "astId": 279,
        "contract": "contracts/VerifiableRandomnessOrg.sol:VerifiableRandomnessOrg",
        "label": "s_requestIdToRange",
        "offset": 0,
        "slot": "3",
        "type": "t_mapping(t_bytes32,t_uint256)"
      },
      {
        "astId": 283,
        "contract": "contracts/VerifiableRandomnessOrg.sol:VerifiableRandomnessOrg",
        "label": "s_requestIdToRNG",
        "offset": 0,
        "slot": "4",
        "type": "t_mapping(t_bytes32,t_uint256)"
      }
    ],
    "types": {
      "t_bytes32": {
        "encoding": "inplace",
        "label": "bytes32",
        "numberOfBytes": "32"
      },
      "t_mapping(t_bytes32,t_uint256)": {
        "encoding": "mapping",
        "key": "t_bytes32",
        "label": "mapping(bytes32 => uint256)",
        "numberOfBytes": "32",
        "value": "t_uint256"
      },
      "t_uint256": {
        "encoding": "inplace",
        "label": "uint256",
        "numberOfBytes": "32"
      }
    }
  }
}